Beginning of ULUT control block - Sample 4 - ULUT Type 3


LOOK COMMAND - DISPLAY VIRTUAL MEMORY      CURRENT ASID= 004A
ENTER CMD -
LAST CMD  - 1FFFFF00000

000001FF_FFF00000   >E4D3E4E3  03000000  00100000  00000000 *>ULUT............*
000001FF_FFF00010    000001FF  FFF00290  00000000  000001D3  *.....0.........L*
000001FF_FFF00020    00000040  00000000  00000119  0000005F  *... ...........¬*
000001FF_FFF00030    00000003  00000000  00000018  006D0000  *............._..*
000001FF_FFF00040    000400AD  00010000  005D0000  00000AEC  *.........)......*
000001FF_FFF00050    0000057C  000002B8  0000015C  000000B4  *...@.......*....*
000001FF_FFF00060    00000054  00000030  00000018  0000000C  *................*
000001FF_FFF00070    00000000  00000000  00000000  00000000  *................*
000001FF_FFF00080    00000000  00000000  00000000  00000000  *................*
000001FF_FFF00090    00000000  00000000  00000000  00000000  *................*
000001FF_FFF000A0    00000000  00000000  00000000  00000000  *................*
000001FF_FFF000B0    00000000  00000000  00000000  00000000  *................*
000001FF_FFF000C0    00000000  00000000  00000000  00000000  *................*
000001FF_FFF000D0    00000000  00000000  00000000  00000000  *................*
000001FF_FFF000E0    00000000  00000000  00000000  00000000  *................*
000001FF_FFF000F0    00000000  00000000  00000000  00000000  *................*
000001FF_FFF00100    00000000  00000000  00000000  00000000 *>................*
000001FF_FFF00110    00000000  00000000  00000000  00000000  *................*
000001FF_FFF00120    00000000  00000000  00000000  00000000  *................*
000001FF_FFF00130    00000000  00000000  00000000  00000000  *................*
000001FF_FFF00140    00000000  00000000  00000000  00000000  *................*
000001FF_FFF00150    00000000  00000000  00000000  00000000  *................*
000001FF_FFF00160    00000000  00000000  00000000  00000000  *................*
000001FF_FFF00170    00000000  00000000  00000000  00000000  *................*
000001FF_FFF00180    00000000  00000000  00000000  00000000  *................*
000001FF_FFF00190    00000000  00000000  00000000  00000000  *................*
000001FF_FFF001A0    00000000  00000000  00000000  00000000  *................*
000001FF_FFF001B0    00000000  00000000  00000000  00000000  *................*
000001FF_FFF001C0    00000000  00000000  00000000  00000000  *................*
000001FF_FFF001D0    00000000  00000000  00000000  00000000  *................*
000001FF_FFF001E0    00000000  00000000  00000000  00000000  *................*
000001FF_FFF001F0    00000000  00000000  00000000  00000000  *................*
000001FF_FFF00200    00000000  00000000  00000000  00000000 *>................*
000001FF_FFF00210    000001FF  FFF01874  00000000  000001D3  *.....0.........L*
000001FF_FFF00220    00000040  00000000  00000119  0000005F  *... ...........¬*
000001FF_FFF00230    00000003  00000000  00000018  006D0000  *............._..*
000001FF_FFF00240    000400AD  00010000  005D0000  00000AEC  *.........)......*
000001FF_FFF00250    0000057C  000002B8  0000015C  000000B4  *...@.......*....*
000001FF_FFF00260    00000054  00000030  00000018  0000000C  *................*
000001FF_FFF00270    00000000  00000000  00000000  00000000  *................*
000001FF_FFF00280    00000000  00000000  00000000  00000000  *................*
000001FF_FFF00290    000C4000  00020000  00F40140  000E4000  *.. ......4. .. .*
000001FF_FFF002A0    00030000  00F40180  000F4000  00000000  *.....4.... .....*
000001FF_FFF002B0    00F401C0  01204000  00050000  00F40248  *.4.... ......4..*
000001FF_FFF002C0    01214000  00060000  00F402E0  01224000  *.. ......4.... .*
000001FF_FFF002D0    00070000  00F40378  01234000  00080000  *.....4.... .....*
000001FF_FFF002E0    00F40410  01244000  00090000  00F404A8  *.4.... ......4.y*
000001FF_FFF002F0    01254000  000A0000  00F40540  01264000  *.. ......4. .. .*
000001FF_FFF00300    000B0000  00F405D8  01274000  000C0000 *>.....4.Q.. .....*
000001FF_FFF00310    00F40670  01284000  000D0000  00F40708  *.4.... ......4..*
000001FF_FFF00320    01294000  000E0000  00F407A0  012A4000  *.. ......4.... .*
000001FF_FFF00330    000F0000  00F40838  012B4000  00100000  *.....4.... .....*
000001FF_FFF00340    00F408D0  012C4000  00110000  00F40968  *.4.... ......4..*
000001FF_FFF00350    012D4000  00120000  00F40A00  012E4000  *.. ......4.... .*
000001FF_FFF00360    00130000  00F40A98  012F4000  00140000  *.....4.q.. .....*
000001FF_FFF00370    00F40B30  01304000  00150000  00F40BC8  *.4.... ......4.H*
000001FF_FFF00380    01314000  00160000  00F40C60  01324000  *.. ......4.-.. .*
000001FF_FFF00390    00170000  00F40CF8  01334000  00180000  *.....4.8.. .....*
000001FF_FFF003A0    00F40D90  01344000  00190000  00F40E28  *.4.... ......4..*
000001FF_FFF003B0    01354000  001A0000  00F40EC0  01364000  *.. ......4.... .*
000001FF_FFF003C0    001B0000  00F40F58  01374000  001C0000  *.....4.... .....*
000001FF_FFF003D0    00F40FF0  01384000  001D0000  00F41088  *.4.0.. ......4.h*
000001FF_FFF003E0    01394000  001E0000  00F41120  013A4000  *.. ......4.... .*
000001FF_FFF003F0    001F0000  00F411B8  013B4000  00200000  *.....4.... .....*
000001FF_FFF00400    00F41250  013C4000  00210000  00F412E8 *>.4.&.. ......4.Y*
000001FF_FFF00410    013D4000  00220000  00F41380  013E4000  *.. ......4.... .*
000001FF_FFF00420    00230000  00F41418  013F4000  00240000  *.....4.... .....*
000001FF_FFF00430    00F414B0  01404000  00250000  00F41548  *.4...  ......4..*
000001FF_FFF00440    01414000  00260000  00F415E0  01424000  *.. ......4.... .*
000001FF_FFF00450    00270000  00F41678  01434000  00280000  *.....4.... .....*
000001FF_FFF00460    00F41710  01444000  00290000  00F417A8  *.4.... ......4.y*
000001FF_FFF00470    01454000  002A0000  00F41840  01464000  *.. ......4. .. .*
000001FF_FFF00480    002B0000  00F418D8  01474000  002C0000  *.....4.Q.. .....*
000001FF_FFF00490    00F41970  01484000  002D0000  00F41A08  *.4.... ......4..*
000001FF_FFF004A0    01494000  002E0000  00F41AA0  014A4000  *.. ......4...¢ .*
000001FF_FFF004B0    002F0000  00F41B38  014B4000  00300000  *.....4.... .....*
000001FF_FFF004C0    00F41BD0  014C4000  00310000  00F41C68  *.4...< ......4..*
000001FF_FFF004D0    014D4000  00320000  00F41D00  014E4000  *.( ......4...+ .*
000001FF_FFF004E0    00330000  00F41D98  014F4000  00340000  *.....4.q.| .....*
000001FF_FFF004F0    00F41E30  01504000  00350000  00F41EC8  *.4...& ......4.H*



